:020000040000FA
:100000000C9463000C948B000C948B000C94BC0635
:100010000C94BC060C94BC060C948B000C948B00C6
:100020000C948B000C948B000C948B000C948B0024
:100030000C948B000C948B000C948B000C948B0014
:100040000C941A060C948B000C948A060C9464068B
:100050000C948B000C948B000C948B000C948B00F4
:100060000C948B000C948B000000000024002700EF
:100070002A0000000008000201000003040700003D
:1000800000000000000000000000230026002900FE
:1000900000000000250028002B00040404040404D0
:1000A0000404020202020202030303030303010227
:1000B00004081020408001020408102001020408F6
:1000C00010203407350A11241FBECFEFD8E0DEBF61
:1000D000CDBF11E0A0E0B1E0E2E9F9E102C0059096
:1000E0000D92A23BB107D9F722E0A2EBB1E001C02B
:1000F0001D92A73DB207E1F710E0C2E6D0E004C0D0
:100100002197FE010E94B60CC136D107C9F70E94A3
:1001100013080C94BC0C0C94000090E0FC01EE5809
:10012000FF4F2491FC01E255FF4F3491FC01E6564C
:10013000FF4FE491EE23C9F0222339F0233001F17F
:10014000A8F4213019F1223029F1F0E0EE0FFF1F61
:10015000E057FF4FA591B4918FB7F894EC916111DE
:1001600026C030953E233C938FBF08952730A9F0D9
:100170002830C9F0243049F7809180008F7D03C07A
:10018000809180008F7780938000DFCF84B58F7758
:1001900084BDDBCF84B58F7DFBCF8091B0008F779E
:1001A0008093B000D2CF8091B0008F7DF9CF3E2BED
:1001B000DACFCF93DF9390E0FC01E255FF4F24911B
:1001C00086569F4FFC0184918823D1F090E0880FE0
:1001D000991FFC01E859FF4FA591B491FC01E0572C
:1001E000FF4FC591D49161110EC09FB7F8948C91C7
:1001F000E22FE0958E238C932881E223E8839FBF32
:10020000DF91CF9108958FB7F894EC91E22BEC93A6
:100210008FBFF6CF8E50806480937C0080917A00EF
:10022000806480937A0080917A0086FDFCCF809173
:1002300078009091790008953FB7F8948091FF017C
:1002400090910002A0910102B091020226B5A89BF4
:1002500005C02F3F19F00196A11DB11D3FBFBA2F58
:10026000A92F982F8827BC01CD01620F711D811D18
:10027000911D42E0660F771F881F991F4A95D1F79D
:1002800008958F929F92AF92BF92CF92DF92EF929A
:10029000FF924B015C010E941C016B017C010E94DA
:1002A0001C016C197D098E099F09683E7340810508
:1002B0009105A8F321E0821A9108A108B10888EEFF
:1002C000C80E83E0D81EE11CF11C81149104A10426
:1002D000B10429F7FF90EF90DF90CF90BF90AF90DF
:1002E0009F908F900895DC01ED91FC910190F08139
:1002F000E02D0994AF92BF92CF92DF92EF92FF92DE
:100300000F931F93CF93DF936C017B018B01040F3D
:10031000151FEB015E01AE18BF08C017D10759F0D9
:100320006991D601ED91FC910190F081E02DC6011B
:100330000995892B79F7C501DF91CF911F910F9115
:10034000FF90EF90DF90CF90BF90AF900895FC01A9
:10035000538D448D252F30E0842F90E0821B930B2A
:10036000541710F0CF96089501970895FC01918DD0
:10037000828D981761F0A28DAE0FBF2FB11D5D96D3
:100380008C91928D9F5F9F73928F90E008958FEF75
:100390009FEF0895FC01918D828D981731F0828D29
:1003A000E80FF11D858D90E008958FEF9FEF089580
:1003B000FC01918D228D892F90E0805C9F4F821BE4
:1003C00091098F739927089583E092E00E94D801E4
:1003D00021E0892B09F420E0822F089580E090E04D
:1003E000892B29F00E94E40181110C9400000895EA
:1003F000FC01A48DA80FB92FB11DA35ABF4F2C919A
:10040000848D90E001968F739927848FA689B78990
:100410002C93A089B1898C91837080648C93938D87
:10042000848D981306C00288F389E02D80818F7D2A
:1004300080830895EF92FF920F931F93CF93DF93E2
:10044000EC0181E0888F9B8D8C8D98131AC0E88910
:10045000F989808185FF15C09FB7F894EE89FF89DF
:100460006083E889F98980818370806480839FBF7D
:1004700081E090E0DF91CF911F910F91FF90EF907D
:100480000895F62E0B8D10E00F5F1F4F0F7311278D
:10049000E02E8C8D8E110CC00FB607FCFACFE889C8
:1004A000F989808185FFF5CFCE010E94F801F1CF57
:1004B000EB8DEC0FFD2FF11DE35AFF4FF0829FB73C
:1004C000F8940B8FEA89FB8980818062CFCFCF932C
:1004D000DF93EC01888D8823B9F0AA89BB89E8896C
:1004E000F9898C9185FD03C0808186FD0DC00FB612
:1004F00007FCF7CF8C9185FFF2CF808185FFEDCF90
:10050000CE010E94F801E9CFDF91CF9108952091AB
:10051000F4013091F5012817390771F49091F20137
:100520008091F301981741F0E091F201F0E0EE5470
:10053000FE4F808190E008958FEF9FEF089508951A
:10054000EF92FF920F931F93CF93DF93DC015C96A2
:10055000ED90FC905D97E114F10479F481E090E076
:1005600013969C938E93129790E080E0DF91CF9149
:100570001F910F91FF90EF9008955196ED91FC918E
:10058000529750968C915097982F90950FB75E96F2
:100590002C915E97122F127021FD6095F8942081A6
:1005A000112319F1282B2083E7012197F1F728E087
:1005B000462F50E0308160FF1AC0382B3083E701AE
:1005C0002197F1F7BA0175956795215089F71123A5
:1005D00081F08081892380830FBF5C968D919C91EF
:1005E0000197F1F781E090E0C1CF2923DCCF3923D7
:1005F000E5CF9081892BEFCF2091F4013091F50167
:100600002817390761F48091F3012091F20190E0FD
:10061000805C9F4F821B91098F739927089590E00A
:1006200080E008952091F4013091F50128173907F1
:10063000B9F49091F2018091F301981789F0E0915B
:10064000F201F0E0EE54FE4F80812091F20130E0A3
:100650002F5F3F4F2F7333272093F20190E00895CF
:100660008FEF9FEF0895089590E080E00895CF9375
:10067000DF93EC0160E08E810E948D0061E08E814D
:100680000E948D0060E08E810E948D008BE891E0D9
:100690000197F1F7DF91CF910895CF92DF92EF921A
:1006A000FF920F931F93CF93DF936C017C0187E040
:1006B000E80EF11CD0E0C0E0062F10E0B8010C2ECF
:1006C00002C0759567950A94E2F76170F701819110
:1006D0007F010E948D002196C430D10579F7C601B3
:1006E000DF91CF911F910F91FF90EF90DF90CF900E
:1006F0000C943703CF92DF92EF92FF920F931F93E8
:10070000CF93DF93EC01F62E642F8C810E948D0035
:100710008D818F3F19F060E00E948D000F2D10E059
:100720008F8584FF25C06E0187E0C80ED11CF12C97
:10073000E12CB8010E2C02C0759567950A94E2F77A
:100740006170F60181916F010E948D00FFEFEF1A39
:10075000FF0A88E0E816F10461F7CE01DF91CF913E
:100760001F910F91FF90EF90DF90CF900C94370383
:10077000B80184E0759567958A95E1F7CE010E94EE
:100780004D036F2DCE01DF91CF911F910F91FF90FF
:10079000EF90DF90CF900C944D0340E0682F8FEBEB
:1007A00092E00C947A03CF93DF93823029F49091F6
:1007B000CE0298609093CE028093D2021092D30220
:1007C00080E48093D40280E18093D50280E5809319
:1007D000D60261E08091C3020E94D9008091C402D8
:1007E0008F3F19F061E00E94D90061E08091C5025D
:1007F0000E94D900CFEBD2E09E012F5B3240809166
:10080000CE0284FD0BC084E090E0219628173907C2
:1008100044F461E08E810E94D900EECF88E090E040
:10082000F4CF8BE39DE00197F1F760E08091C30284
:100830000E948D0060E08091C5020E948D00809131
:10084000C4028F3F19F060E00E948D008091CE02BB
:1008500084FD39C063E08FEB92E00E944D03CBE44E
:10086000D6E4CE010197F1F763E08FEB92E00E94AE
:100870004D032197F1F763E08FEB92E00E944D0367
:1008800083E592E00197F1F762E08FEB92E00E943E
:100890004D038091CE0280620E94CD0384E080935C
:1008A000CF028CE00E94CD0381E00E94CD038BE358
:1008B0009FE10197F1F782E08093D00286E0DF911B
:1008C000CF910C94CD0380620E94CD038BE496E41B
:1008D0000197F1F78091CE0280620E94CD0383E5FB
:1008E00092E00197F1F78091CE0280620E94CD03E1
:1008F000D0CF9091D202891710F08FEF890FE82F97
:10090000F0E0E154FD4F848980680C94CD0341E010
:100910000E947A0381E090E00895FB01019000209D
:10092000E9F73197AF01461B570BDC01ED91FC91C4
:100930000280F381E02D09948F929F92AF92BF9233
:10094000EF92FF920F931F93CF93DF93CDB7DEB754
:10095000A1970FB6F894DEBF0FBECDBF7C01FA01A0
:10096000CB0119A2223008F42AE08E010F5D1F4F3F
:10097000822E912CB12CA12CBF01A50194010E94C3
:10098000940CF901CA016A300CF5605DD8016E93D0
:100990008D01232B242B252B79F790E080E01097F5
:1009A00021F0BD01C7010E948D04A1960FB6F894F5
:1009B000DEBF0FBECDBFDF91CF911F910F91FF9092
:1009C000EF90BF90AF909F908F900895695CDECFBD
:1009D000CF92DF92EF92FF920F931F93CF93DF930B
:1009E0006B01770FEE08FF08F7FE1BC0EC016DE20C
:1009F0000E9473018C0144275527BA014C195D09E7
:100A00006E097F092AE0CE010E949C04800F911F8D
:100A1000DF91CF911F910F91FF90EF90DF90CF90DA
:100A200008952AE0B701A601DF91CF911F910F91A0
:100A3000FF90EF90DF90CF900C949C042F923F9208
:100A40004F925F926F927F928F929F92AF92BF92DE
:100A5000CF92DF92EF92FF921F93CF93DF93EC013F
:100A60006A017B01722EAB019601CB01B6010E9497
:100A70008F0C60E371E0811126C046015701E894B4
:100A8000B7F82FEF3FEF4FE75FE7C501B4010E94D2
:100A90008F0C81110CC02FEF3FEF4FE75FE7C501CF
:100AA000B4010E94BE0A64E371E0181664F02FEFEF
:100AB0003FEF4FE75FE4C701B6010E941D0C181617
:100AC000B4F468E371E0CE01DF91CF911F91FF9004
:100AD000EF90DF90CF90BF90AF909F908F907F90DE
:100AE0006F905F904F903F902F900C948D042FEF5C
:100AF0003FEF4FE75FECC701B6010E94BE0A87FDDA
:100B0000E0CF20E030E0A901C701B6010E94BE0A93
:100B1000312C212C87FF09C06DE2CE010E947301A8
:100B20001C01F7FAF094F7F8F09410E060E070E040
:100B300080E09FE3711641F020E030E040E251E4B4
:100B40000E94C30A1F5FF6CFA70196010E94520AB6
:100B50002B013C010E943C0B4B015C012AE0BC01D3
:100B6000A401CE010E949C047C01E20CF31C112321
:100B7000C1F1C501B4010E946B0B9B01AC01C30123
:100B8000B2010E94510A4B015C016EE2CE010E944B
:100B90007301E80EF91E115020F120E030E040E230
:100BA00051E4C501B4010E94220C2B013C010E94BA
:100BB0003C0B4B01B12CA12C2AE0B501A401CE01C4
:100BC0000E949C04E80EF91EC501B4010E946B0B43
:100BD0009B01AC01C301B2010E94510A4B015C01AF
:100BE000DACFC701DF91CF911F91FF90EF90DF9097
:100BF000CF90BF90AF909F908F907F906F905F90BD
:100C00004F903F902F9008950F931F93CF93DF93B2
:100C1000EC010E948D048C016CE371E0CE010E9416
:100C20008D04800F911FDF91CF911F910F91089537
:100C30000C948D041F920F920FB60F9211242F93D4
:100C40003F938F939F93AF93BF938091FB019091BC
:100C5000FC01A091FD01B091FE013091FA0123E069
:100C6000230F2D3758F50196A11DB11D2093FA01D0
:100C70008093FB019093FC01A093FD01B093FE01D2
:100C80008091FF0190910002A0910102B0910202B7
:100C90000196A11DB11D8093FF0190930002A093C6
:100CA0000102B0930202BF91AF919F918F913F914A
:100CB0002F910F900FBE0F901F90189526E8230FCD
:100CC0000296A11DB11DD2CF1F920F920FB60F92A7
:100CD00011242F933F934F935F936F937F938F9341
:100CE0009F93AF93BF93EF93FF9383E092E00E94B3
:100CF000F801FF91EF91BF91AF919F918F917F91FB
:100D00006F915F914F913F912F910F900FBE0F9078
:100D10001F9018951F920F920FB60F9211242F93C8
:100D20008F939F93EF93FF93E0911302F09114023E
:100D30008081E0911902F0911A0282FD1BC090811E
:100D400080911C028F5F8F7320911D02821741F0EA
:100D5000E0911C02F0E0ED5FFD4F958F80931C0247
:100D6000FF91EF919F918F912F910F900FBE0F9058
:100D70001F9018958081F4CF1F920F920FB60F929B
:100D800011242F933F934F935F936F937F938F9390
:100D90009F93AF93BF93EF93FF93E091F401F09192
:100DA000F501309749F0A685B7858585968D91FF29
:100DB00014C09C918923A1F4FF91EF91BF91AF9151
:100DC0009F918F917F916F915F914F913F912F9163
:100DD0000F900FBE0F901F9018959C91892361F77B
:100DE000A389B4899C918589809589238C93868970
:100DF00097890197F1F7608D718DA685B785558527
:100E000038E020E0CB010197F1F7822F90E0959533
:100E10008795282F4C91452309F02068315091F790
:100E2000868D81FD20958091F30190E001968F736E
:100E300099273091F201381799F0A091F301B0E0B1
:100E4000AE54BE4F2C938093F301828D938D019706
:100E5000F1F7A389B4898C919589892B8C93ACCFB8
:100E6000868D8160868FF1CFCF92DF92EF92FF92D5
:100E7000109206021092050298EEC92E93E0D92E28
:100E8000E12CF12CC0920702D0920802E0920902F4
:100E9000F0920A0284E091E09093040280930302AE
:100EA00085EC90E09093100280930F0284EC90E028
:100EB000909312028093110280EC90E090931402C0
:100EC0008093130281EC90E09093160280931502B8
:100ED00082EC90E0909318028093170286EC90E0E9
:100EE00090931A028093190210921C0210921D0214
:100EF00010921E0210921F021092C2021092C102A2
:100F000088E291E09093C0028093BF028BE08093CF
:100F1000C3028FEF8093C4028AE08093C50285E00C
:100F20008093C60284E08093C70283E08093C80266
:100F300082E08093C9021092CA021092CB021092F2
:100F4000CC021092CD021092CE0281E00E94D30317
:100F50001092A3021092A202C092A402D092A50203
:100F6000E092A602F092A70286E191E09093A1029E
:100F70008093A0021092B7021092B6021092B902AA
:100F80001092B8021092BB021092BA021092BD02E7
:100F90001092BC026091BE026E7F6D7F6093BE02B4
:100FA0006695617081E068270E948D0061E081E0B4
:100FB0000E94D900EFEAF0E0E491E093B002EBE99F
:100FC000F0E0E491F0E0EE0FFF1FE057FF4F859156
:100FD00094919093B2028093B10260E080E00E940D
:100FE000D9008091BE0281FD04C061E080E00E94D2
:100FF0008D001092AC02EEEAF0E0E491E093AD02D5
:10100000EAE9F0E0E491F0E0EE0FFF1FEA57FF4F4E
:10101000859194919093AF028093AE02FF90EF90F0
:10102000DF90CF900895789484B5826084BD84B5B4
:10103000816084BD85B5826085BD85B5816085BDD3
:1010400080916E00816080936E001092810080918B
:101050008100826080938100809181008160809313
:101060008100809180008160809380008091B10038
:1010700084608093B1008091B00081608093B00063
:1010800080917A00846080937A0080917A008260F7
:1010900080937A0080917A00816080937A008091B9
:1010A0007A00806880937A001092C10082E00E94EA
:1010B000D3031092BB021092BA021092B90210929E
:1010C000B8021092B7021092B6028DE991E09093A7
:1010D000BD028093BC029091AC02963108F047C0EB
:1010E0002DEB30E03093B7022093B6022BE931E0CC
:1010F0003093B9022093B8022CE231E03093BB0266
:101100002093BA022091680084E0983048F031E0E2
:101110009E3008F430E081E001C0880F3A95EAF78C
:10112000822B809368002DE630E0983050F02BE65B
:1011300030E09E3030F02CE630E0963110F030E0B8
:1011400020E03093B4022093B302292F30E098308E
:1011500008F068C181E001C0880F9A95EAF7809392
:10116000B5028091BC029091BD020197F1F7809188
:10117000BA029091BB02892B49F1E091F401F09100
:10118000F50122E0E03AF20709F1309739F0A3893E
:10119000B4899C918589809589238C938091BE0226
:1011A0008E7F8093BE021092F3011092F20180EACA
:1011B00092E09093F5018093F401E091B302F091F5
:1011C000B40280819091B502892B8083E091130253
:1011D000F091140282E08083E0910F02F0911002FE
:1011E0001082E0911102F09112028FEC8083109234
:1011F0001B02E0911702F091180286E08083E091D3
:101200001502F0911602808180618083E0911502C1
:10121000F0911602808188608083E0911502F09140
:101220001602808180688083E0911502F091160299
:1012300080818F7D80830BE31FE1C0E0D0E08EE0F2
:101240000E940A01BC01990F880B990B0E946D0B3B
:1012500020E030E040E85AE30E94220C20E030E435
:101260004CE955E40E94220C20E030E44CE155E4C6
:101270000E94510A20E030E044E852E40E94C30A90
:101280006B017C01C092F601D092F701E092F80167
:10129000F092F9018FE00E940A01843F91400CF026
:1012A000CEC020E030E040E451E4C701B6010E9426
:1012B000220C0E94350B4B01072E000C880B990B5A
:1012C0000E946D0BA70196010E94220CA7019601B6
:1012D0000E94220C0E94350B6B016FE371E08FEBD3
:1012E00092E00E9418064091F6015091F70160913A
:1012F000F8017091F90122E08FEB92E00E941E0547
:101300006AE471E08FEB92E00E94180681E00E948F
:1013100079046DE471E08FEB92E00E941806B4014D
:101320008FEB92E00E94E80468E571E08FEB92E0B9
:101330000E94180680E00E9479046FE371E083E068
:1013400092E00E9418064091F6015091F7016091D9
:10135000F8017091F90122E083E092E00E941E05FD
:101360006BE571E083E092E00E94180668EC70E0A3
:1013700080E090E00E9441016DE471E083E092E042
:101380000E941806B40183E092E00E94E8046FE531
:1013900071E083E092E00E94180663E671E083E06A
:1013A00092E00E941806B60183E092E00E94E804F1
:1013B0006CE671E083E092E00E94040660E273E074
:1013C00080E090E00E94410163E671E08FEB92E0E3
:1013D0000E941806B6018FEB92E00E94E80463E7D2
:1013E00071E08FEB92E00E94180681E00E94790480
:1013F00060E871E08FEB92E00E94180680E00E94A6
:10140000790460E273E080E090E00E94410120975F
:1014100009F415CF0E94E401882309F410CF0E943B
:1014200000000DCF9E3040F42850310981E001C00A
:10143000880F2A95EAF793CE2E503109F7CF81E035
:101440000E94CD03C8010197F1F780E00E94790462
:1014500066E971E08FEB92E00E94040663EA71E0B6
:1014600083E092E00E940406CCCF86E191E0909365
:10147000A1028093A0028091F4019091F501805A1D
:10148000924071F4E091B302F091B40290818091A6
:10149000B5028095892380831092F5011092F401A2
:1014A00008955058BB27AA270E94690A0C94E30BA1
:1014B0000E94D50B38F00E94DC0B20F039F49F3FDE
:1014C00019F426F40C94D20B0EF4E095E7FB0C947F
:1014D000CC0BE92F0E94F40B58F3BA17620773077D
:1014E0008407950720F079F4A6F50C94160C0EF4F9
:1014F000E0950B2EBA2FA02D0B01B90190010C0124
:10150000CA01A0011124FF27591B99F0593F50F43B
:10151000503E68F11A16F040A22F232F342F442793
:10152000585FF3CF469537952795A795F04053958B
:10153000C9F77EF41F16BA0B620B730B840BBAF05B
:101540009150A1F0FF0FBB1F661F771F881FC2F7C6
:101550000EC0BA0F621F731F841F48F487957795DA
:101560006795B795F7959E3F08F0B0CF9395880F94
:1015700008F09927EE0F9795879508950E94A80B7C
:1015800008F481E008950E94D70A0C94E30B0E94AE
:10159000DC0B58F00E94D50B40F029F45F3F29F096
:1015A0000C94CC0B51110C94170C0C94D20B0E9480
:1015B000F40B68F39923B1F3552391F3951B550B65
:1015C000BB27AA2762177307840738F09F5F5F4F16
:1015D000220F331F441FAA1FA9F335D00E2E3AF055
:1015E000E0E832D091505040E695001CCAF72BD06D
:1015F000FE2F29D0660F771F881FBB1F26173707BE
:101600004807AB07B0E809F0BB0B802DBF01FF27EF
:1016100093585F4F3AF09E3F510578F00C94CC0BF5
:101620000C94170C5F3FE4F3983ED4F386957795BE
:101630006795B795F7959F5FC9F7880F911D9695A8
:10164000879597F90895E1E0660F771F881FBB1F04
:10165000621773078407BA0720F0621B730B840BB1
:10166000BA0BEE1F88F7E09508950E943C0B689432
:10167000B1110C94170C08950E94FC0B88F09F5731
:1016800098F0B92F9927B751B0F0E1F0660F771FA6
:10169000881F991F1AF0BA95C9F714C0B13091F09C
:1016A0000E94160CB1E008950C94160C672F782F49
:1016B0008827B85F39F0B93FCCF386957795679561
:1016C000B395D9F73EF490958095709561957F4FCD
:1016D0008F4F9F4F0895E89409C097FB3EF4909573
:1016E0008095709561957F4F8F4F9F4F9923A9F0FB
:1016F000F92F96E9BB279395F6958795779567958A
:10170000B795F111F8CFFAF4BB0F11F460FF1BC0CD
:101710006F5F7F4F8F4F9F4F16C0882311F096E960
:1017200011C0772321F09EE8872F762F05C066230E
:1017300071F096E8862F70E060E02AF09A95660FC7
:10174000771F881FDAF7880F9695879597F9089580
:10175000990F0008550FAA0BE0E8FEEF16161706C2
:10176000E807F907C0F012161306E407F50798F02A
:10177000621B730B840B950B39F40A2661F0232B43
:10178000242B252B21F408950A2609F4A140A695BF
:101790008FEF811D811D089597F99F6780E870E0A4
:1017A00060E008959FEF80EC089500240A941616D7
:1017B000170618060906089500240A94121613063F
:1017C000140605060895092E0394000C11F48823CD
:1017D00052F0BB0F40F4BF2B11F460FF04C06F5FE9
:1017E0007F4F8F4F9F4F089557FD9058440F551FBF
:1017F00059F05F3F71F04795880F97FB991F61F093
:101800009F3F79F087950895121613061406551F09
:10181000F2CF4695F1DF08C0161617061806991F75
:10182000F1CF86957105610508940895E894BB276A
:1018300066277727CB0197F908950E94A80B08F433
:101840008FEF08950E94350C0C94E30B0E94D50B8A
:1018500038F00E94DC0B20F0952311F00C94CC0B97
:101860000C94D20B11240C94170C0E94F40B70F3FF
:10187000959FC1F3950F50E0551F629FF001729F35
:10188000BB27F00DB11D639FAA27F00DB11DAA1F44
:10189000649F6627B00DA11D661F829F2227B00D91
:1018A000A11D621F739FB00DA11D621F839FA00D1C
:1018B000611D221F749F3327A00D611D231F849F6C
:1018C000600D211D822F762F6A2F11249F575040C3
:1018D0009AF0F1F088234AF0EE0FFF1FBB1F661F3E
:1018E000771F881F91505040A9F79E3F510580F007
:1018F0000C94CC0B0C94170C5F3FE4F3983ED4F39C
:10190000869577956795B795F795E7959F5FC1F7AA
:10191000FE2B880F911D9695879597F908950E9443
:10192000A80B880B990B0895A1E21A2EAA1BBB1BCA
:10193000FD010DC0AA1FBB1FEE1FFF1FA217B3079B
:10194000E407F50720F0A21BB30BE40BF50B661FB1
:10195000771F881F991F1A9469F760957095809575
:1019600090959B01AC01BD01CF010895EE0FFF1FC3
:101970000590F491E02D099410E0C2E6D0E004C097
:10198000FE010E94B60C2196C336D107C9F7F89420
:10199000FFCF000000001A027A01A7016702D801F8
:1019A000B601CA0100000000A0027A0134039F02C0
:1019B000FC02120387020000000087047A0134034E
:1019C00033036E616E00696E66006F7666000D0A05
:1019D0000043757272656E74203D200020410056F0
:1019E0006F6C74616765203D200020560020410A1D
:1019F0000020560A00506F776572203D2000205766
:101A00006174740A00576174742020202020202003
:101A10000A002020202020202020202020202020FC
:101A20002020202020202000697427732072616903
:101A30006E696E67006974206973207261696E69EE
:041A40006E672100AC
:107E0000112484B714BE81FFF0D085E080938100F7
:107E100082E08093C00088E18093C10086E0809377
:107E2000C20080E18093C4008EE0C9D0259A86E02C
:107E300020E33CEF91E0309385002093840096BBD3
:107E4000B09BFECF1D9AA8958150A9F7CC24DD24C4
:107E500088248394B5E0AB2EA1E19A2EF3E0BF2EE7
:107E6000A2D0813461F49FD0082FAFD0023811F036
:107E7000013811F484E001C083E08DD089C08234E0
:107E800011F484E103C0853419F485E0A6D080C0E4
:107E9000853579F488D0E82EFF2485D0082F10E0AE
:107EA000102F00270E291F29000F111F8ED06801E7
:107EB0006FC0863521F484E090D080E0DECF843638
:107EC00009F040C070D06FD0082F6DD080E0C81688
:107ED00080E7D80618F4F601B7BEE895C0E0D1E017
:107EE00062D089930C17E1F7F0E0CF16F0E7DF06D8
:107EF00018F0F601B7BEE89568D007B600FCFDCFD4
:107F0000A601A0E0B1E02C9130E011968C91119780
:107F100090E0982F8827822B932B1296FA010C0160
:107F200087BEE89511244E5F5F4FF1E0A038BF0790
:107F300051F7F601A7BEE89507B600FCFDCF97BE46
:107F4000E89526C08437B1F42ED02DD0F82E2BD052
:107F50003CD0F601EF2C8F010F5F1F4F84911BD097
:107F6000EA94F801C1F70894C11CD11CFA94CF0C13
:107F7000D11C0EC0853739F428D08EE10CD085E9AC
:107F80000AD08FE07ACF813511F488E018D01DD067
:107F900080E101D065CF982F8091C00085FFFCCF94
:107FA0009093C60008958091C00087FFFCCF809118
:107FB000C00084FD01C0A8958091C6000895E0E648
:107FC000F0E098E1908380830895EDDF803219F02E
:107FD00088E0F5DFFFCF84E1DECF1F93182FE3DFCA
:107FE0001150E9F7F2DF1F91089580E0E8DFEE27F6
:047FF000FF270994CA
:027FFE00040479
:00000001FF
